{
  "abi": [
    {
      "inputs": [],
      "stateMutability": "nonpayable",
      "type": "constructor"
    },
    {
      "anonymous": false,
      "inputs": [
        {
          "indexed": true,
          "internalType": "address",
          "name": "owner",
          "type": "address"
        },
        {
          "indexed": true,
          "internalType": "address",
          "name": "approved",
          "type": "address"
        },
        {
          "indexed": true,
          "internalType": "uint256",
          "name": "tokenId",
          "type": "uint256"
        }
      ],
      "name": "Approval",
      "type": "event"
    },
    {
      "anonymous": false,
      "inputs": [
        {
          "indexed": true,
          "internalType": "address",
          "name": "owner",
          "type": "address"
        },
        {
          "indexed": true,
          "internalType": "address",
          "name": "operator",
          "type": "address"
        },
        {
          "indexed": false,
          "internalType": "bool",
          "name": "approved",
          "type": "bool"
        }
      ],
      "name": "ApprovalForAll",
      "type": "event"
    },
    {
      "anonymous": false,
      "inputs": [
        {
          "indexed": true,
          "internalType": "uint256",
          "name": "tokenId",
          "type": "uint256"
        },
        {
          "indexed": false,
          "internalType": "address",
          "name": "minter",
          "type": "address"
        }
      ],
      "name": "LogMint",
      "type": "event"
    },
    {
      "anonymous": false,
      "inputs": [
        {
          "indexed": true,
          "internalType": "address",
          "name": "from",
          "type": "address"
        },
        {
          "indexed": true,
          "internalType": "address",
          "name": "to",
          "type": "address"
        },
        {
          "indexed": true,
          "internalType": "uint256",
          "name": "tokenId",
          "type": "uint256"
        }
      ],
      "name": "Transfer",
      "type": "event"
    },
    {
      "inputs": [
        {
          "internalType": "address",
          "name": "to",
          "type": "address"
        },
        {
          "internalType": "uint256",
          "name": "tokenId",
          "type": "uint256"
        }
      ],
      "name": "approve",
      "outputs": [],
      "stateMutability": "nonpayable",
      "type": "function"
    },
    {
      "inputs": [
        {
          "internalType": "address",
          "name": "owner",
          "type": "address"
        }
      ],
      "name": "balanceOf",
      "outputs": [
        {
          "internalType": "uint256",
          "name": "",
          "type": "uint256"
        }
      ],
      "stateMutability": "view",
      "type": "function"
    },
    {
      "inputs": [
        {
          "internalType": "uint256",
          "name": "tokenId",
          "type": "uint256"
        }
      ],
      "name": "burn",
      "outputs": [],
      "stateMutability": "nonpayable",
      "type": "function"
    },
    {
      "inputs": [
        {
          "internalType": "uint256",
          "name": "tokenId",
          "type": "uint256"
        }
      ],
      "name": "getApproved",
      "outputs": [
        {
          "internalType": "address",
          "name": "",
          "type": "address"
        }
      ],
      "stateMutability": "view",
      "type": "function"
    },
    {
      "inputs": [
        {
          "internalType": "address",
          "name": "owner",
          "type": "address"
        },
        {
          "internalType": "address",
          "name": "operator",
          "type": "address"
        }
      ],
      "name": "isApprovedForAll",
      "outputs": [
        {
          "internalType": "bool",
          "name": "",
          "type": "bool"
        }
      ],
      "stateMutability": "view",
      "type": "function"
    },
    {
      "inputs": [],
      "name": "mint",
      "outputs": [],
      "stateMutability": "payable",
      "type": "function"
    },
    {
      "inputs": [],
      "name": "name",
      "outputs": [
        {
          "internalType": "string",
          "name": "",
          "type": "string"
        }
      ],
      "stateMutability": "view",
      "type": "function"
    },
    {
      "inputs": [
        {
          "internalType": "uint256",
          "name": "tokenId",
          "type": "uint256"
        }
      ],
      "name": "ownerOf",
      "outputs": [
        {
          "internalType": "address",
          "name": "",
          "type": "address"
        }
      ],
      "stateMutability": "view",
      "type": "function"
    },
    {
      "inputs": [
        {
          "internalType": "address",
          "name": "from",
          "type": "address"
        },
        {
          "internalType": "address",
          "name": "to",
          "type": "address"
        },
        {
          "internalType": "uint256",
          "name": "tokenId",
          "type": "uint256"
        }
      ],
      "name": "safeTransferFrom",
      "outputs": [],
      "stateMutability": "nonpayable",
      "type": "function"
    },
    {
      "inputs": [
        {
          "internalType": "address",
          "name": "from",
          "type": "address"
        },
        {
          "internalType": "address",
          "name": "to",
          "type": "address"
        },
        {
          "internalType": "uint256",
          "name": "tokenId",
          "type": "uint256"
        },
        {
          "internalType": "bytes",
          "name": "data",
          "type": "bytes"
        }
      ],
      "name": "safeTransferFrom",
      "outputs": [],
      "stateMutability": "nonpayable",
      "type": "function"
    },
    {
      "inputs": [
        {
          "internalType": "address",
          "name": "operator",
          "type": "address"
        },
        {
          "internalType": "bool",
          "name": "approved",
          "type": "bool"
        }
      ],
      "name": "setApprovalForAll",
      "outputs": [],
      "stateMutability": "nonpayable",
      "type": "function"
    },
    {
      "inputs": [
        {
          "internalType": "bytes4",
          "name": "interfaceId",
          "type": "bytes4"
        }
      ],
      "name": "supportsInterface",
      "outputs": [
        {
          "internalType": "bool",
          "name": "",
          "type": "bool"
        }
      ],
      "stateMutability": "view",
      "type": "function"
    },
    {
      "inputs": [],
      "name": "symbol",
      "outputs": [
        {
          "internalType": "string",
          "name": "",
          "type": "string"
        }
      ],
      "stateMutability": "view",
      "type": "function"
    },
    {
      "inputs": [
        {
          "internalType": "uint256",
          "name": "index",
          "type": "uint256"
        }
      ],
      "name": "tokenByIndex",
      "outputs": [
        {
          "internalType": "uint256",
          "name": "",
          "type": "uint256"
        }
      ],
      "stateMutability": "view",
      "type": "function"
    },
    {
      "inputs": [
        {
          "internalType": "address",
          "name": "owner",
          "type": "address"
        },
        {
          "internalType": "uint256",
          "name": "index",
          "type": "uint256"
        }
      ],
      "name": "tokenOfOwnerByIndex",
      "outputs": [
        {
          "internalType": "uint256",
          "name": "",
          "type": "uint256"
        }
      ],
      "stateMutability": "view",
      "type": "function"
    },
    {
      "inputs": [
        {
          "internalType": "uint256",
          "name": "tokenId",
          "type": "uint256"
        }
      ],
      "name": "tokenURI",
      "outputs": [
        {
          "internalType": "string",
          "name": "",
          "type": "string"
        }
      ],
      "stateMutability": "view",
      "type": "function"
    },
    {
      "inputs": [],
      "name": "totalSupply",
      "outputs": [
        {
          "internalType": "uint256",
          "name": "",
          "type": "uint256"
        }
      ],
      "stateMutability": "view",
      "type": "function"
    },
    {
      "inputs": [
        {
          "internalType": "address",
          "name": "from",
          "type": "address"
        },
        {
          "internalType": "address",
          "name": "to",
          "type": "address"
        },
        {
          "internalType": "uint256",
          "name": "tokenId",
          "type": "uint256"
        }
      ],
      "name": "transferFrom",
      "outputs": [],
      "stateMutability": "nonpayable",
      "type": "function"
    }
  ],
  "bytecode": {
    "object": "0x60806040523480156200001157600080fd5b506040518060400160405280600b81526020016a15195cdd1a5b99c813919560aa1b81525060405180604001604052806004815260200163151154d560e21b815250816000908162000064919062000121565b50600162000073828262000121565b505050620001ed565b634e487b7160e01b600052604160045260246000fd5b600181811c90821680620000a757607f821691505b602082108103620000c857634e487b7160e01b600052602260045260246000fd5b50919050565b601f8211156200011c57600081815260208120601f850160051c81016020861015620000f75750805b601f850160051c820191505b81811015620001185782815560010162000103565b5050505b505050565b81516001600160401b038111156200013d576200013d6200007c565b62000155816200014e845462000092565b84620000ce565b602080601f8311600181146200018d5760008415620001745750858301515b600019600386901b1c1916600185901b17855562000118565b600085815260208120601f198616915b82811015620001be578886015182559484019460019091019084016200019d565b5085821015620001dd5787850151600019600388901b60f8161c191681555b5050505050600190811b01905550565b6118dd80620001fd6000396000f3fe6080604052600436106101095760003560e01c806342966c681161009557806395d89b411161006457806395d89b41146102c6578063a22cb465146102db578063b88d4fde146102fb578063c87b56dd1461031b578063e985e9c51461033b57600080fd5b806342966c68146102465780634f6ccce7146102665780636352211e1461028657806370a08231146102a657600080fd5b80631249c58b116100dc5780631249c58b146101bf57806318160ddd146101c757806323b872dd146101e65780632f745c591461020657806342842e0e1461022657600080fd5b806301ffc9a71461010e57806306fdde0314610143578063081812fc14610165578063095ea7b31461019d575b600080fd5b34801561011a57600080fd5b5061012e6101293660046113dd565b610384565b60405190151581526020015b60405180910390f35b34801561014f57600080fd5b50610158610395565b60405161013a9190611452565b34801561017157600080fd5b50610185610180366004611465565b610427565b6040516001600160a01b03909116815260200161013a565b3480156101a957600080fd5b506101bd6101b836600461149a565b61044e565b005b6101bd610568565b3480156101d357600080fd5b506008545b60405190815260200161013a565b3480156101f257600080fd5b506101bd6102013660046114c4565b6105bd565b34801561021257600080fd5b506101d861022136600461149a565b6105ef565b34801561023257600080fd5b506101bd6102413660046114c4565b610685565b34801561025257600080fd5b506101bd610261366004611465565b6106a0565b34801561027257600080fd5b506101d8610281366004611465565b6106d1565b34801561029257600080fd5b506101856102a1366004611465565b610764565b3480156102b257600080fd5b506101d86102c1366004611500565b6107c4565b3480156102d257600080fd5b5061015861084a565b3480156102e757600080fd5b506101bd6102f636600461151b565b610859565b34801561030757600080fd5b506101bd61031636600461156d565b610868565b34801561032757600080fd5b50610158610336366004611465565b6108a0565b34801561034757600080fd5b5061012e610356366004611649565b6001600160a01b03918216600090815260056020908152604080832093909416825291909152205460ff1690565b600061038f82610914565b92915050565b6060600080546103a49061167c565b80601f01602080910402602001604051908101604052809291908181526020018280546103d09061167c565b801561041d5780601f106103f25761010080835404028352916020019161041d565b820191906000526020600020905b81548152906001019060200180831161040057829003601f168201915b5050505050905090565b600061043282610939565b506000908152600460205260409020546001600160a01b031690565b600061045982610764565b9050806001600160a01b0316836001600160a01b0316036104cb5760405162461bcd60e51b815260206004820152602160248201527f4552433732313a20617070726f76616c20746f2063757272656e74206f776e656044820152603960f91b60648201526084015b60405180910390fd5b336001600160a01b03821614806104e757506104e78133610356565b6105595760405162461bcd60e51b815260206004820152603e60248201527f4552433732313a20617070726f76652063616c6c6572206973206e6f7420746f60448201527f6b656e206f776e6572206e6f7220617070726f76656420666f7220616c6c000060648201526084016104c2565b6105638383610998565b505050565b61057433600a54610a06565b600a8054906000610584836116cc565b909155506040513381527fd691dfe064d30e820b9a7313d0552d724c4a7b60bab53eb1893e6f8ad433e5359060200160405180910390a2565b6105c8335b82610b54565b6105e45760405162461bcd60e51b81526004016104c2906116e5565b610563838383610bd3565b60006105fa836107c4565b821061065c5760405162461bcd60e51b815260206004820152602b60248201527f455243373231456e756d657261626c653a206f776e657220696e646578206f7560448201526a74206f6620626f756e647360a81b60648201526084016104c2565b506001600160a01b03919091166000908152600660209081526040808320938352929052205490565b61056383838360405180602001604052806000815250610868565b6106a9336105c2565b6106c55760405162461bcd60e51b81526004016104c2906116e5565b6106ce81610d7a565b50565b60006106dc60085490565b821061073f5760405162461bcd60e51b815260206004820152602c60248201527f455243373231456e756d657261626c653a20676c6f62616c20696e646578206f60448201526b7574206f6620626f756e647360a01b60648201526084016104c2565b6008828154811061075257610752611733565b90600052602060002001549050919050565b6000818152600260205260408120546001600160a01b03168061038f5760405162461bcd60e51b8152602060048201526018602482015277115490cdcc8c4e881a5b9d985b1a59081d1bdad95b88125160421b60448201526064016104c2565b60006001600160a01b03821661082e5760405162461bcd60e51b815260206004820152602960248201527f4552433732313a2061646472657373207a65726f206973206e6f7420612076616044820152683634b21037bbb732b960b91b60648201526084016104c2565b506001600160a01b031660009081526003602052604090205490565b6060600180546103a49061167c565b610864338383610e21565b5050565b6108723383610b54565b61088e5760405162461bcd60e51b81526004016104c2906116e5565b61089a84848484610eef565b50505050565b60606108ab82610939565b60006108c260408051602081019091526000815290565b905060008151116108e2576040518060200160405280600081525061090d565b806108ec84610f22565b6040516020016108fd929190611749565b6040516020818303038152906040525b9392505050565b60006001600160e01b0319821663780e9d6360e01b148061038f575061038f82611023565b6000818152600260205260409020546001600160a01b03166106ce5760405162461bcd60e51b8152602060048201526018602482015277115490cdcc8c4e881a5b9d985b1a59081d1bdad95b88125160421b60448201526064016104c2565b600081815260046020526040902080546001600160a01b0319166001600160a01b03841690811790915581906109cd82610764565b6001600160a01b03167f8c5be1e5ebec7d5bd14f71427d1e84f3dd0314c0f7b2291e5b200ac8c7c3b92560405160405180910390a45050565b6001600160a01b038216610a5c5760405162461bcd60e51b815260206004820181905260248201527f4552433732313a206d696e7420746f20746865207a65726f206164647265737360448201526064016104c2565b6000818152600260205260409020546001600160a01b031615610ac15760405162461bcd60e51b815260206004820152601c60248201527f4552433732313a20746f6b656e20616c7265616479206d696e7465640000000060448201526064016104c2565b610acd60008383611073565b6001600160a01b0382166000908152600360205260408120805460019290610af6908490611778565b909155505060008181526002602052604080822080546001600160a01b0319166001600160a01b03861690811790915590518392907fddf252ad1be2c89b69c2b068fc378daa952ba7f163c4a11628f55a4df523b3ef908290a45050565b600080610b6083610764565b9050806001600160a01b0316846001600160a01b03161480610ba757506001600160a01b0380821660009081526005602090815260408083209388168352929052205460ff165b80610bcb5750836001600160a01b0316610bc084610427565b6001600160a01b0316145b949350505050565b826001600160a01b0316610be682610764565b6001600160a01b031614610c4a5760405162461bcd60e51b815260206004820152602560248201527f4552433732313a207472616e736665722066726f6d20696e636f72726563742060448201526437bbb732b960d91b60648201526084016104c2565b6001600160a01b038216610cac5760405162461bcd60e51b8152602060048201526024808201527f4552433732313a207472616e7366657220746f20746865207a65726f206164646044820152637265737360e01b60648201526084016104c2565b610cb7838383611073565b610cc2600082610998565b6001600160a01b0383166000908152600360205260408120805460019290610ceb908490611790565b90915550506001600160a01b0382166000908152600360205260408120805460019290610d19908490611778565b909155505060008181526002602052604080822080546001600160a01b0319166001600160a01b0386811691821790925591518493918716917fddf252ad1be2c89b69c2b068fc378daa952ba7f163c4a11628f55a4df523b3ef91a4505050565b6000610d8582610764565b9050610d9381600084611073565b610d9e600083610998565b6001600160a01b0381166000908152600360205260408120805460019290610dc7908490611790565b909155505060008281526002602052604080822080546001600160a01b0319169055518391906001600160a01b038416907fddf252ad1be2c89b69c2b068fc378daa952ba7f163c4a11628f55a4df523b3ef908390a45050565b816001600160a01b0316836001600160a01b031603610e825760405162461bcd60e51b815260206004820152601960248201527f4552433732313a20617070726f766520746f2063616c6c65720000000000000060448201526064016104c2565b6001600160a01b03838116600081815260056020908152604080832094871680845294825291829020805460ff191686151590811790915591519182527f17307eab39ab6107e8899845ad3d59bd9653f200f220920489ca2b5937696c31910160405180910390a3505050565b610efa848484610bd3565b610f068484848461107e565b61089a5760405162461bcd60e51b81526004016104c2906117a7565b606081600003610f495750506040805180820190915260018152600360fc1b602082015290565b8160005b8115610f735780610f5d816116cc565b9150610f6c9050600a8361180f565b9150610f4d565b60008167ffffffffffffffff811115610f8e57610f8e611557565b6040519080825280601f01601f191660200182016040528015610fb8576020820181803683370190505b5090505b8415610bcb57610fcd600183611790565b9150610fda600a86611823565b610fe5906030611778565b60f81b818381518110610ffa57610ffa611733565b60200101906001600160f81b031916908160001a90535061101c600a8661180f565b9450610fbc565b60006001600160e01b031982166380ac58cd60e01b148061105457506001600160e01b03198216635b5e139f60e01b145b8061038f57506301ffc9a760e01b6001600160e01b031983161461038f565b61056383838361117f565b60006001600160a01b0384163b1561117457604051630a85bd0160e11b81526001600160a01b0385169063150b7a02906110c2903390899088908890600401611837565b6020604051808303816000875af19250505080156110fd575060408051601f3d908101601f191682019092526110fa91810190611874565b60015b61115a573d80801561112b576040519150601f19603f3d011682016040523d82523d6000602084013e611130565b606091505b5080516000036111525760405162461bcd60e51b81526004016104c2906117a7565b805181602001fd5b6001600160e01b031916630a85bd0160e11b149050610bcb565b506001949350505050565b6001600160a01b0383166111da576111d581600880546000838152600960205260408120829055600182018355919091527ff3f7a9fe364faab93b216da50a3214154f22a0a2b415b23a84c8169e8b636ee30155565b6111fd565b816001600160a01b0316836001600160a01b0316146111fd576111fd8382611237565b6001600160a01b03821661121457610563816112d4565b826001600160a01b0316826001600160a01b031614610563576105638282611383565b60006001611244846107c4565b61124e9190611790565b6000838152600760205260409020549091508082146112a1576001600160a01b03841660009081526006602090815260408083208584528252808320548484528184208190558352600790915290208190555b5060009182526007602090815260408084208490556001600160a01b039094168352600681528383209183525290812055565b6008546000906112e690600190611790565b6000838152600960205260408120546008805493945090928490811061130e5761130e611733565b90600052602060002001549050806008838154811061132f5761132f611733565b600091825260208083209091019290925582815260099091526040808220849055858252812055600880548061136757611367611891565b6001900381819060005260206000200160009055905550505050565b600061138e836107c4565b6001600160a01b039093166000908152600660209081526040808320868452825280832085905593825260079052919091209190915550565b6001600160e01b0319811681146106ce57600080fd5b6000602082840312156113ef57600080fd5b813561090d816113c7565b60005b838110156114155781810151838201526020016113fd565b8381111561089a5750506000910152565b6000815180845261143e8160208601602086016113fa565b601f01601f19169290920160200192915050565b60208152600061090d6020830184611426565b60006020828403121561147757600080fd5b5035919050565b80356001600160a01b038116811461149557600080fd5b919050565b600080604083850312156114ad57600080fd5b6114b68361147e565b946020939093013593505050565b6000806000606084860312156114d957600080fd5b6114e28461147e565b92506114f06020850161147e565b9150604084013590509250925092565b60006020828403121561151257600080fd5b61090d8261147e565b6000806040838503121561152e57600080fd5b6115378361147e565b91506020830135801515811461154c57600080fd5b809150509250929050565b634e487b7160e01b600052604160045260246000fd5b6000806000806080858703121561158357600080fd5b61158c8561147e565b935061159a6020860161147e565b925060408501359150606085013567ffffffffffffffff808211156115be57600080fd5b818701915087601f8301126115d257600080fd5b8135818111156115e4576115e4611557565b604051601f8201601f19908116603f0116810190838211818310171561160c5761160c611557565b816040528281528a602084870101111561162557600080fd5b82602086016020830137600060208483010152809550505050505092959194509250565b6000806040838503121561165c57600080fd5b6116658361147e565b91506116736020840161147e565b90509250929050565b600181811c9082168061169057607f821691505b6020821081036116b057634e487b7160e01b600052602260045260246000fd5b50919050565b634e487b7160e01b600052601160045260246000fd5b6000600182016116de576116de6116b6565b5060010190565b6020808252602e908201527f4552433732313a2063616c6c6572206973206e6f7420746f6b656e206f776e6560408201526d1c881b9bdc88185c1c1c9bdd995960921b606082015260800190565b634e487b7160e01b600052603260045260246000fd5b6000835161175b8184602088016113fa565b83519083019061176f8183602088016113fa565b01949350505050565b6000821982111561178b5761178b6116b6565b500190565b6000828210156117a2576117a26116b6565b500390565b60208082526032908201527f4552433732313a207472616e7366657220746f206e6f6e20455243373231526560408201527131b2b4bb32b91034b6b83632b6b2b73a32b960711b606082015260800190565b634e487b7160e01b600052601260045260246000fd5b60008261181e5761181e6117f9565b500490565b600082611832576118326117f9565b500690565b6001600160a01b038581168252841660208201526040810183905260806060820181905260009061186a90830184611426565b9695505050505050565b60006020828403121561188657600080fd5b815161090d816113c7565b634e487b7160e01b600052603160045260246000fdfea2646970667358221220f59e9b18ec31c7cd4a4568d095b0bc7577e0af1e24f80dbf8a3898a50289a0ca64736f6c634300080f0033",
    "linkReferences": {}
  },
  "methodIdentifiers": {
    "approve(address,uint256)": "095ea7b3",
    "balanceOf(address)": "70a08231",
    "burn(uint256)": "42966c68",
    "getApproved(uint256)": "081812fc",
    "isApprovedForAll(address,address)": "e985e9c5",
    "mint()": "1249c58b",
    "name()": "06fdde03",
    "ownerOf(uint256)": "6352211e",
    "safeTransferFrom(address,address,uint256)": "42842e0e",
    "safeTransferFrom(address,address,uint256,bytes)": "b88d4fde",
    "setApprovalForAll(address,bool)": "a22cb465",
    "supportsInterface(bytes4)": "01ffc9a7",
    "symbol()": "95d89b41",
    "tokenByIndex(uint256)": "4f6ccce7",
    "tokenOfOwnerByIndex(address,uint256)": "2f745c59",
    "tokenURI(uint256)": "c87b56dd",
    "totalSupply()": "18160ddd",
    "transferFrom(address,address,uint256)": "23b872dd"
  },
  "id": 20
}