{
  "abi": [
    {
      "anonymous": false,
      "inputs": [
        {
          "indexed": false,
          "internalType": "address",
          "name": "collection",
          "type": "address"
        },
        {
          "indexed": false,
          "internalType": "uint256",
          "name": "tokenId",
          "type": "uint256"
        },
        {
          "indexed": false,
          "internalType": "uint256",
          "name": "price",
          "type": "uint256"
        }
      ],
      "name": "BoughtListed",
      "type": "event"
    },
    {
      "anonymous": false,
      "inputs": [
        {
          "indexed": false,
          "internalType": "address",
          "name": "collection",
          "type": "address"
        },
        {
          "indexed": false,
          "internalType": "uint256",
          "name": "tokenId",
          "type": "uint256"
        },
        {
          "indexed": false,
          "internalType": "uint256",
          "name": "price",
          "type": "uint256"
        },
        {
          "indexed": false,
          "internalType": "uint256",
          "name": "salesEnd",
          "type": "uint256"
        }
      ],
      "name": "CreateListing",
      "type": "event"
    },
    {
      "anonymous": false,
      "inputs": [
        {
          "indexed": false,
          "internalType": "address",
          "name": "collection",
          "type": "address"
        },
        {
          "indexed": false,
          "internalType": "uint256",
          "name": "tokenId",
          "type": "uint256"
        }
      ],
      "name": "DeleteListing",
      "type": "event"
    },
    {
      "anonymous": false,
      "inputs": [
        {
          "indexed": true,
          "internalType": "address",
          "name": "previousOwner",
          "type": "address"
        },
        {
          "indexed": true,
          "internalType": "address",
          "name": "newOwner",
          "type": "address"
        }
      ],
      "name": "OwnershipTransferred",
      "type": "event"
    },
    {
      "anonymous": false,
      "inputs": [
        {
          "indexed": false,
          "internalType": "address",
          "name": "collection",
          "type": "address"
        },
        {
          "indexed": false,
          "internalType": "uint256",
          "name": "tokenId",
          "type": "uint256"
        },
        {
          "indexed": false,
          "internalType": "uint256",
          "name": "duration",
          "type": "uint256"
        }
      ],
      "name": "UpdateDurationListing",
      "type": "event"
    },
    {
      "anonymous": false,
      "inputs": [
        {
          "indexed": false,
          "internalType": "address",
          "name": "collection",
          "type": "address"
        },
        {
          "indexed": false,
          "internalType": "uint256",
          "name": "tokenId",
          "type": "uint256"
        },
        {
          "indexed": false,
          "internalType": "uint256",
          "name": "price",
          "type": "uint256"
        }
      ],
      "name": "UpdatePriceListing",
      "type": "event"
    },
    {
      "inputs": [
        {
          "internalType": "address",
          "name": "collection",
          "type": "address"
        },
        {
          "internalType": "uint256",
          "name": "tokenId",
          "type": "uint256"
        }
      ],
      "name": "buyListed",
      "outputs": [],
      "stateMutability": "payable",
      "type": "function"
    },
    {
      "inputs": [
        {
          "internalType": "address",
          "name": "collection",
          "type": "address"
        },
        {
          "internalType": "uint256",
          "name": "tokenId",
          "type": "uint256"
        },
        {
          "internalType": "uint256",
          "name": "price",
          "type": "uint256"
        },
        {
          "internalType": "uint256",
          "name": "duration",
          "type": "uint256"
        }
      ],
      "name": "createListing",
      "outputs": [],
      "stateMutability": "nonpayable",
      "type": "function"
    },
    {
      "inputs": [
        {
          "internalType": "address",
          "name": "collection",
          "type": "address"
        },
        {
          "internalType": "uint256",
          "name": "tokenId",
          "type": "uint256"
        }
      ],
      "name": "deleteListing",
      "outputs": [],
      "stateMutability": "nonpayable",
      "type": "function"
    },
    {
      "inputs": [
        {
          "internalType": "address",
          "name": "collection",
          "type": "address"
        },
        {
          "internalType": "uint256",
          "name": "tokenId",
          "type": "uint256"
        }
      ],
      "name": "getListing",
      "outputs": [
        {
          "components": [
            {
              "internalType": "uint256",
              "name": "tokenId",
              "type": "uint256"
            },
            {
              "internalType": "uint256",
              "name": "price",
              "type": "uint256"
            },
            {
              "internalType": "address",
              "name": "owner",
              "type": "address"
            },
            {
              "internalType": "uint256",
              "name": "saleEnds",
              "type": "uint256"
            }
          ],
          "internalType": "struct IMarketplace.Listing",
          "name": "",
          "type": "tuple"
        }
      ],
      "stateMutability": "view",
      "type": "function"
    },
    {
      "inputs": [],
      "name": "owner",
      "outputs": [
        {
          "internalType": "address",
          "name": "",
          "type": "address"
        }
      ],
      "stateMutability": "view",
      "type": "function"
    },
    {
      "inputs": [],
      "name": "renounceOwnership",
      "outputs": [],
      "stateMutability": "nonpayable",
      "type": "function"
    },
    {
      "inputs": [
        {
          "internalType": "address",
          "name": "newOwner",
          "type": "address"
        }
      ],
      "name": "transferOwnership",
      "outputs": [],
      "stateMutability": "nonpayable",
      "type": "function"
    },
    {
      "inputs": [
        {
          "internalType": "address",
          "name": "collection",
          "type": "address"
        },
        {
          "internalType": "uint256",
          "name": "tokenId",
          "type": "uint256"
        },
        {
          "internalType": "uint256",
          "name": "duration",
          "type": "uint256"
        }
      ],
      "name": "updateListingDuration",
      "outputs": [],
      "stateMutability": "nonpayable",
      "type": "function"
    },
    {
      "inputs": [
        {
          "internalType": "address",
          "name": "collection",
          "type": "address"
        },
        {
          "internalType": "uint256",
          "name": "tokenId",
          "type": "uint256"
        },
        {
          "internalType": "uint256",
          "name": "price",
          "type": "uint256"
        }
      ],
      "name": "updateListingPrice",
      "outputs": [],
      "stateMutability": "nonpayable",
      "type": "function"
    }
  ],
  "bytecode": {
    "object": "0x608060405234801561001057600080fd5b5061001a3361001f565b61006f565b600080546001600160a01b038381166001600160a01b0319831681178455604051919092169283917f8be0079c531659141344cd1fd0a4f28419497f9722a3daafe3b4186f6b6457e09190a35050565b610fc98061007e6000396000f3fe6080604052600436106100865760003560e01c8063715018a611610059578063715018a61461010057806388700d1c146101155780638da5cb5b1461017a578063f2fde38b146101a2578063f7232f67146101c257600080fd5b80634fe5d9851461008b578063518a8623146100ad57806366e17300146100cd57806370cdec3d146100e0575b600080fd5b34801561009757600080fd5b506100ab6100a6366004610e15565b6101e2565b005b3480156100b957600080fd5b506100ab6100c8366004610e41565b61031b565b6100ab6100db366004610e15565b610427565b3480156100ec57600080fd5b506100ab6100fb366004610e76565b61069c565b34801561010c57600080fd5b506100ab61081c565b34801561012157600080fd5b50610135610130366004610e15565b610830565b604051610171919081518152602080830151908201526040808301516001600160a01b0316908201526060918201519181019190915260800190565b60405180910390f35b34801561018657600080fd5b506000546040516001600160a01b039091168152602001610171565b3480156101ae57600080fd5b506100ab6101bd366004610eb1565b610971565b3480156101ce57600080fd5b506100ab6101dd366004610e41565b6109ea565b6040516331a9108f60e11b81526004810182905233906001600160a01b03841690636352211e90602401602060405180830381865afa158015610229573d6000803e3d6000fd5b505050506040513d601f19601f8201168201806040525081019061024d9190610ece565b6001600160a01b03161461027c5760405162461bcd60e51b815260040161027390610eeb565b60405180910390fd5b6001600160a01b03821660008181526001602081815260408084208685528083529084208481558084018590556002810180546001600160a01b031916905560030184905593909252908190526102d4910182610ade565b50604080516001600160a01b0384168152602081018390527ffce186960fd1e9668c92913cf5ec01591ec2cbc4548929392aaa7d128d5a9c97910160405180910390a15050565b6040516331a9108f60e11b81526004810183905233906001600160a01b03851690636352211e90602401602060405180830381865afa158015610362573d6000803e3d6000fd5b505050506040513d601f19601f820116820180604052508101906103869190610ece565b6001600160a01b0316146103ac5760405162461bcd60e51b815260040161027390610eeb565b60006103b88242610f38565b6001600160a01b03851660008181526001602090815260408083208884528252918290206003018490558151928352820186905281018290529091507fae9ee85c8fa9e20f1b1d3533ad0b910ae4034f3857a07560971f564d673492ab9060600160405180910390a150505050565b6001600160a01b03828116600081815260016020818152604080842087855282529283902083516080810185528154815292810154918301919091526002810154909416818301819052600390940154606082015290516331a9108f60e11b81526004810185905290929190636352211e90602401602060405180830381865afa1580156104b9573d6000803e3d6000fd5b505050506040513d601f19601f820116820180604052508101906104dd9190610ece565b6001600160a01b03161461052a5760405162461bcd60e51b815260206004820152601460248201527311985a5b1959081d1bc8189d5e481b1a5cdd195960621b6044820152606401610273565b80602001513410156105755760405162461bcd60e51b815260206004820152601460248201527311985a5b1959081d1bc8189d5e481b1a5cdd195960621b6044820152606401610273565b6040818101519051632142170760e11b81526001600160a01b03918216600482015233602482015260448101849052908416906342842e0e90606401600060405180830381600087803b1580156105cb57600080fd5b505af11580156105df573d6000803e3d6000fd5b505050506105f1816040015134610aea565b6001600160a01b03831660008181526001602081815260408084208785528083529084208481558084018590556002810180546001600160a01b03191690556003018490559390925290819052610649910183610ade565b50604080516001600160a01b03851681526020810184905234918101919091527f99c8ed55057b9882e154ea21cbab92ea0c42b23f54f05301ef7de02f15bb07d3906060015b60405180910390a1505050565b6040516331a9108f60e11b81526004810184905233906001600160a01b03861690636352211e90602401602060405180830381865afa1580156106e3573d6000803e3d6000fd5b505050506040513d601f19601f820116820180604052508101906107079190610ece565b6001600160a01b03161461072d5760405162461bcd60e51b815260040161027390610eeb565b60006107398242610f38565b60408051608081018252868152602080820187815233838501908152606084018681526001600160a01b038c8116600081815260018088528982208f83528089529982208951815596518782015594516002870180546001600160a01b0319169190941617909255915160039094019390935590915290819052929350916107c2910186610c08565b50604080516001600160a01b038816815260208101879052908101859052606081018390527f307eb2b7017d33b710c8b6bbdaaa508dfd3d2e118ea514030d0f69d9bdc20fd39060800160405180910390a1505050505050565b610824610c14565b61082e6000610c6e565b565b6108646040518060800160405280600081526020016000815260200160006001600160a01b03168152602001600081525090565b6001600160a01b03838116600081815260016020818152604080842088855282529283902083516080810185528154815292810154918301919091526002810154909416818301819052600390940154606082015290516331a9108f60e11b81526004810186905290929190636352211e90602401602060405180830381865afa1580156108f6573d6000803e3d6000fd5b505050506040513d601f19601f8201168201806040525081019061091a9190610ece565b6001600160a01b0316146109685760405162461bcd60e51b81526020600482015260156024820152744661696c656420746f20676574206c697374696e6760581b6044820152606401610273565b90505b92915050565b610979610c14565b6001600160a01b0381166109de5760405162461bcd60e51b815260206004820152602660248201527f4f776e61626c653a206e6577206f776e657220697320746865207a65726f206160448201526564647265737360d01b6064820152608401610273565b6109e781610c6e565b50565b6040516331a9108f60e11b81526004810183905233906001600160a01b03851690636352211e90602401602060405180830381865afa158015610a31573d6000803e3d6000fd5b505050506040513d601f19601f82011682018060405250810190610a559190610ece565b6001600160a01b031614610a7b5760405162461bcd60e51b815260040161027390610eeb565b6001600160a01b03831660008181526001602081815260408084208785528252928390209091018490558151928352820184905281018290527f7d797d9c42dfe39b73ef5c1a6406ca63b85027281485f21b2fa9cbbb229adb699060600161068f565b60006109688383610cbe565b80471015610b3a5760405162461bcd60e51b815260206004820152601d60248201527f416464726573733a20696e73756666696369656e742062616c616e63650000006044820152606401610273565b6000826001600160a01b03168260405160006040518083038185875af1925050503d8060008114610b87576040519150601f19603f3d011682016040523d82523d6000602084013e610b8c565b606091505b5050905080610c035760405162461bcd60e51b815260206004820152603a60248201527f416464726573733a20756e61626c6520746f2073656e642076616c75652c207260448201527f6563697069656e74206d617920686176652072657665727465640000000000006064820152608401610273565b505050565b60006109688383610db1565b6000546001600160a01b0316331461082e5760405162461bcd60e51b815260206004820181905260248201527f4f776e61626c653a2063616c6c6572206973206e6f7420746865206f776e65726044820152606401610273565b600080546001600160a01b038381166001600160a01b0319831681178455604051919092169283917f8be0079c531659141344cd1fd0a4f28419497f9722a3daafe3b4186f6b6457e09190a35050565b60008181526001830160205260408120548015610da7576000610ce2600183610f50565b8554909150600090610cf690600190610f50565b9050818114610d5b576000866000018281548110610d1657610d16610f67565b9060005260206000200154905080876000018481548110610d3957610d39610f67565b6000918252602080832090910192909255918252600188019052604090208390555b8554869080610d6c57610d6c610f7d565b60019003818190600052602060002001600090559055856001016000868152602001908152602001600020600090556001935050505061096b565b600091505061096b565b6000818152600183016020526040812054610df85750815460018181018455600084815260208082209093018490558454848252828601909352604090209190915561096b565b50600061096b565b6001600160a01b03811681146109e757600080fd5b60008060408385031215610e2857600080fd5b8235610e3381610e00565b946020939093013593505050565b600080600060608486031215610e5657600080fd5b8335610e6181610e00565b95602085013595506040909401359392505050565b60008060008060808587031215610e8c57600080fd5b8435610e9781610e00565b966020860135965060408601359560600135945092505050565b600060208284031215610ec357600080fd5b813561096881610e00565b600060208284031215610ee057600080fd5b815161096881610e00565b6020808252601a908201527f596f75277265206e6f7420746865204e465420686f6c6465722e000000000000604082015260600190565b634e487b7160e01b600052601160045260246000fd5b60008219821115610f4b57610f4b610f22565b500190565b600082821015610f6257610f62610f22565b500390565b634e487b7160e01b600052603260045260246000fd5b634e487b7160e01b600052603160045260246000fdfea2646970667358221220be3336c9d98b12290c61a220ef90e0c60a8c1de715b836e48e62ee304bdb03c464736f6c634300080f0033",
    "linkReferences": {}
  },
  "methodIdentifiers": {
    "buyListed(address,uint256)": "66e17300",
    "createListing(address,uint256,uint256,uint256)": "70cdec3d",
    "deleteListing(address,uint256)": "4fe5d985",
    "getListing(address,uint256)": "88700d1c",
    "owner()": "8da5cb5b",
    "renounceOwnership()": "715018a6",
    "transferOwnership(address)": "f2fde38b",
    "updateListingDuration(address,uint256,uint256)": "518a8623",
    "updateListingPrice(address,uint256,uint256)": "f7232f67"
  },
  "id": 21
}